{
  "_format": "hh-sol-artifact-1",
  "contractName": "NFT",
  "sourceName": "contracts/NFT.sol",
  "abi": [
    {
      "inputs": [
        {
          "internalType": "address",
          "name": "_marketAddress",
          "type": "address"
        }
      ],
      "stateMutability": "nonpayable",
      "type": "constructor"
    },
    {
      "anonymous": false,
      "inputs": [
        {
          "indexed": true,
          "internalType": "address",
          "name": "owner",
          "type": "address"
        },
        {
          "indexed": true,
          "internalType": "address",
          "name": "approved",
          "type": "address"
        },
        {
          "indexed": true,
          "internalType": "uint256",
          "name": "tokenId",
          "type": "uint256"
        }
      ],
      "name": "Approval",
      "type": "event"
    },
    {
      "anonymous": false,
      "inputs": [
        {
          "indexed": true,
          "internalType": "address",
          "name": "owner",
          "type": "address"
        },
        {
          "indexed": true,
          "internalType": "address",
          "name": "operator",
          "type": "address"
        },
        {
          "indexed": false,
          "internalType": "bool",
          "name": "approved",
          "type": "bool"
        }
      ],
      "name": "ApprovalForAll",
      "type": "event"
    },
    {
      "anonymous": false,
      "inputs": [
        {
          "indexed": true,
          "internalType": "address",
          "name": "from",
          "type": "address"
        },
        {
          "indexed": true,
          "internalType": "address",
          "name": "to",
          "type": "address"
        },
        {
          "indexed": true,
          "internalType": "uint256",
          "name": "tokenId",
          "type": "uint256"
        }
      ],
      "name": "Transfer",
      "type": "event"
    },
    {
      "inputs": [],
      "name": "_tokenIds",
      "outputs": [
        {
          "internalType": "uint256",
          "name": "_value",
          "type": "uint256"
        }
      ],
      "stateMutability": "view",
      "type": "function"
    },
    {
      "inputs": [
        {
          "internalType": "address",
          "name": "to",
          "type": "address"
        },
        {
          "internalType": "uint256",
          "name": "tokenId",
          "type": "uint256"
        }
      ],
      "name": "approve",
      "outputs": [],
      "stateMutability": "nonpayable",
      "type": "function"
    },
    {
      "inputs": [
        {
          "internalType": "address",
          "name": "owner",
          "type": "address"
        }
      ],
      "name": "balanceOf",
      "outputs": [
        {
          "internalType": "uint256",
          "name": "",
          "type": "uint256"
        }
      ],
      "stateMutability": "view",
      "type": "function"
    },
    {
      "inputs": [
        {
          "internalType": "string",
          "name": "tokenURI",
          "type": "string"
        }
      ],
      "name": "createToken",
      "outputs": [
        {
          "internalType": "uint256",
          "name": "",
          "type": "uint256"
        }
      ],
      "stateMutability": "nonpayable",
      "type": "function"
    },
    {
      "inputs": [
        {
          "internalType": "uint256",
          "name": "tokenId",
          "type": "uint256"
        }
      ],
      "name": "getApproved",
      "outputs": [
        {
          "internalType": "address",
          "name": "",
          "type": "address"
        }
      ],
      "stateMutability": "view",
      "type": "function"
    },
    {
      "inputs": [],
      "name": "getMarketPlaceaddress",
      "outputs": [
        {
          "internalType": "address",
          "name": "",
          "type": "address"
        }
      ],
      "stateMutability": "view",
      "type": "function"
    },
    {
      "inputs": [
        {
          "internalType": "address",
          "name": "owner",
          "type": "address"
        },
        {
          "internalType": "address",
          "name": "operator",
          "type": "address"
        }
      ],
      "name": "isApprovedForAll",
      "outputs": [
        {
          "internalType": "bool",
          "name": "",
          "type": "bool"
        }
      ],
      "stateMutability": "view",
      "type": "function"
    },
    {
      "inputs": [],
      "name": "name",
      "outputs": [
        {
          "internalType": "string",
          "name": "",
          "type": "string"
        }
      ],
      "stateMutability": "view",
      "type": "function"
    },
    {
      "inputs": [
        {
          "internalType": "uint256",
          "name": "tokenId",
          "type": "uint256"
        }
      ],
      "name": "ownerOf",
      "outputs": [
        {
          "internalType": "address",
          "name": "",
          "type": "address"
        }
      ],
      "stateMutability": "view",
      "type": "function"
    },
    {
      "inputs": [
        {
          "internalType": "address",
          "name": "from",
          "type": "address"
        },
        {
          "internalType": "address",
          "name": "to",
          "type": "address"
        },
        {
          "internalType": "uint256",
          "name": "tokenId",
          "type": "uint256"
        }
      ],
      "name": "safeTransferFrom",
      "outputs": [],
      "stateMutability": "nonpayable",
      "type": "function"
    },
    {
      "inputs": [
        {
          "internalType": "address",
          "name": "from",
          "type": "address"
        },
        {
          "internalType": "address",
          "name": "to",
          "type": "address"
        },
        {
          "internalType": "uint256",
          "name": "tokenId",
          "type": "uint256"
        },
        {
          "internalType": "bytes",
          "name": "_data",
          "type": "bytes"
        }
      ],
      "name": "safeTransferFrom",
      "outputs": [],
      "stateMutability": "nonpayable",
      "type": "function"
    },
    {
      "inputs": [
        {
          "internalType": "address",
          "name": "operator",
          "type": "address"
        },
        {
          "internalType": "bool",
          "name": "approved",
          "type": "bool"
        }
      ],
      "name": "setApprovalForAll",
      "outputs": [],
      "stateMutability": "nonpayable",
      "type": "function"
    },
    {
      "inputs": [
        {
          "internalType": "address",
          "name": "marketPlaceAddress",
          "type": "address"
        }
      ],
      "name": "setMarketPlaceaddress",
      "outputs": [],
      "stateMutability": "nonpayable",
      "type": "function"
    },
    {
      "inputs": [
        {
          "internalType": "bytes4",
          "name": "interfaceId",
          "type": "bytes4"
        }
      ],
      "name": "supportsInterface",
      "outputs": [
        {
          "internalType": "bool",
          "name": "",
          "type": "bool"
        }
      ],
      "stateMutability": "view",
      "type": "function"
    },
    {
      "inputs": [],
      "name": "symbol",
      "outputs": [
        {
          "internalType": "string",
          "name": "",
          "type": "string"
        }
      ],
      "stateMutability": "view",
      "type": "function"
    },
    {
      "inputs": [
        {
          "internalType": "uint256",
          "name": "tokenId",
          "type": "uint256"
        }
      ],
      "name": "tokenURI",
      "outputs": [
        {
          "internalType": "string",
          "name": "",
          "type": "string"
        }
      ],
      "stateMutability": "view",
      "type": "function"
    },
    {
      "inputs": [
        {
          "internalType": "address",
          "name": "from",
          "type": "address"
        },
        {
          "internalType": "address",
          "name": "to",
          "type": "address"
        },
        {
          "internalType": "uint256",
          "name": "tokenId",
          "type": "uint256"
        }
      ],
      "name": "transferFrom",
      "outputs": [],
      "stateMutability": "nonpayable",
      "type": "function"
    }
  ],
  "bytecode": "0x60806040523480156200001157600080fd5b5060405162002fe838038062002fe8833981810160405281019062000037919062000227565b6040518060400160405280601a81526020017f52656546545920506c6174666f726d204e465420546f6b656e730000000000008152506040518060400160405280600981526020017f5245454654594e465400000000000000000000000000000000000000000000008152508160009080519060200190620000bb92919062000160565b508060019080519060200190620000d492919062000160565b50505033600960006101000a81548173ffffffffffffffffffffffffffffffffffffffff021916908373ffffffffffffffffffffffffffffffffffffffff16021790555080600860006101000a81548173ffffffffffffffffffffffffffffffffffffffff021916908373ffffffffffffffffffffffffffffffffffffffff1602179055505062000306565b8280546200016e9062000287565b90600052602060002090601f016020900481019282620001925760008555620001de565b82601f10620001ad57805160ff1916838001178555620001de565b82800160010185558215620001de579182015b82811115620001dd578251825591602001919060010190620001c0565b5b509050620001ed9190620001f1565b5090565b5b808211156200020c576000816000905550600101620001f2565b5090565b6000815190506200022181620002ec565b92915050565b6000602082840312156200023a57600080fd5b60006200024a8482850162000210565b91505092915050565b6000620002608262000267565b9050919050565b600073ffffffffffffffffffffffffffffffffffffffff82169050919050565b60006002820490506001821680620002a057607f821691505b60208210811415620002b757620002b6620002bd565b5b50919050565b7f4e487b7100000000000000000000000000000000000000000000000000000000600052602260045260246000fd5b620002f78162000253565b81146200030357600080fd5b50565b612cd280620003166000396000f3fe608060405234801561001057600080fd5b506004361061010b5760003560e01c80636352211e116100a2578063aa46a40011610071578063aa46a400146102c8578063b88d4fde146102e6578063c87b56dd14610302578063e985e9c514610332578063f73f8929146103625761010b565b80636352211e1461022e57806370a082311461025e57806395d89b411461028e578063a22cb465146102ac5761010b565b806323b872dd116100de57806323b872dd146101aa57806342842e0e146101c657806345576f94146101e257806361677d9d146102125761010b565b806301ffc9a71461011057806306fdde0314610140578063081812fc1461015e578063095ea7b31461018e575b600080fd5b61012a60048036038101906101259190611d3e565b610380565b6040516101379190612185565b60405180910390f35b610148610462565b60405161015591906121a0565b60405180910390f35b61017860048036038101906101739190611dd1565b6104f4565b604051610185919061211e565b60405180910390f35b6101a860048036038101906101a39190611d02565b610579565b005b6101c460048036038101906101bf9190611bfc565b610691565b005b6101e060048036038101906101db9190611bfc565b6106f1565b005b6101fc60048036038101906101f79190611d90565b610711565b60405161020991906123c2565b60405180910390f35b61022c60048036038101906102279190611b97565b610775565b005b61024860048036038101906102439190611dd1565b610813565b604051610255919061211e565b60405180910390f35b61027860048036038101906102739190611b97565b6108c5565b60405161028591906123c2565b60405180910390f35b61029661097d565b6040516102a391906121a0565b60405180910390f35b6102c660048036038101906102c19190611cc6565b610a0f565b005b6102d0610b90565b6040516102dd91906123c2565b60405180910390f35b61030060048036038101906102fb9190611c4b565b610b9c565b005b61031c60048036038101906103179190611dd1565b610bfe565b60405161032991906121a0565b60405180910390f35b61034c60048036038101906103479190611bc0565b610d50565b6040516103599190612185565b60405180910390f35b61036a610de4565b604051610377919061211e565b60405180910390f35b60007f80ac58cd000000000000000000000000000000000000000000000000000000007bffffffffffffffffffffffffffffffffffffffffffffffffffffffff1916827bffffffffffffffffffffffffffffffffffffffffffffffffffffffff1916148061044b57507f5b5e139f000000000000000000000000000000000000000000000000000000007bffffffffffffffffffffffffffffffffffffffffffffffffffffffff1916827bffffffffffffffffffffffffffffffffffffffffffffffffffffffff1916145b8061045b575061045a82610e0e565b5b9050919050565b60606000805461047190612618565b80601f016020809104026020016040519081016040528092919081815260200182805461049d90612618565b80156104ea5780601f106104bf576101008083540402835291602001916104ea565b820191906000526020600020905b8154815290600101906020018083116104cd57829003601f168201915b5050505050905090565b60006104ff82610e78565b61053e576040517f08c379a000000000000000000000000000000000000000000000000000000000815260040161053590612322565b60405180910390fd5b6004600083815260200190815260200160002060009054906101000a900473ffffffffffffffffffffffffffffffffffffffff169050919050565b600061058482610813565b90508073ffffffffffffffffffffffffffffffffffffffff168373ffffffffffffffffffffffffffffffffffffffff1614156105f5576040517f08c379a00000000000000000000000000000000000000000000000000000000081526004016105ec90612382565b60405180910390fd5b8073ffffffffffffffffffffffffffffffffffffffff16610614610ee4565b73ffffffffffffffffffffffffffffffffffffffff16148061064357506106428161063d610ee4565b610d50565b5b610682576040517f08c379a000000000000000000000000000000000000000000000000000000000815260040161067990612262565b60405180910390fd5b61068c8383610eec565b505050565b6106a261069c610ee4565b82610fa5565b6106e1576040517f08c379a00000000000000000000000000000000000000000000000000000000081526004016106d8906123a2565b60405180910390fd5b6106ec838383611083565b505050565b61070c83838360405180602001604052806000815250610b9c565b505050565b600061071d60076112df565b600061072960076112f5565b90506107353382611303565b61073f81846114d1565b61076c600860009054906101000a900473ffffffffffffffffffffffffffffffffffffffff166001610a0f565b80915050919050565b600960009054906101000a900473ffffffffffffffffffffffffffffffffffffffff1673ffffffffffffffffffffffffffffffffffffffff163373ffffffffffffffffffffffffffffffffffffffff16146107cf57600080fd5b80600860006101000a81548173ffffffffffffffffffffffffffffffffffffffff021916908373ffffffffffffffffffffffffffffffffffffffff16021790555050565b6000806002600084815260200190815260200160002060009054906101000a900473ffffffffffffffffffffffffffffffffffffffff169050600073ffffffffffffffffffffffffffffffffffffffff168173ffffffffffffffffffffffffffffffffffffffff1614156108bc576040517f08c379a00000000000000000000000000000000000000000000000000000000081526004016108b3906122a2565b60405180910390fd5b80915050919050565b60008073ffffffffffffffffffffffffffffffffffffffff168273ffffffffffffffffffffffffffffffffffffffff161415610936576040517f08c379a000000000000000000000000000000000000000000000000000000000815260040161092d90612282565b60405180910390fd5b600360008373ffffffffffffffffffffffffffffffffffffffff1673ffffffffffffffffffffffffffffffffffffffff168152602001908152602001600020549050919050565b60606001805461098c90612618565b80601f01602080910402602001604051908101604052809291908181526020018280546109b890612618565b8015610a055780601f106109da57610100808354040283529160200191610a05565b820191906000526020600020905b8154815290600101906020018083116109e857829003601f168201915b5050505050905090565b610a17610ee4565b73ffffffffffffffffffffffffffffffffffffffff168273ffffffffffffffffffffffffffffffffffffffff161415610a85576040517f08c379a0000000000000000000000000000000000000000000000000000000008152600401610a7c90612222565b60405180910390fd5b8060056000610a92610ee4565b73ffffffffffffffffffffffffffffffffffffffff1673ffffffffffffffffffffffffffffffffffffffff16815260200190815260200160002060008473ffffffffffffffffffffffffffffffffffffffff1673ffffffffffffffffffffffffffffffffffffffff16815260200190815260200160002060006101000a81548160ff0219169083151502179055508173ffffffffffffffffffffffffffffffffffffffff16610b3f610ee4565b73ffffffffffffffffffffffffffffffffffffffff167f17307eab39ab6107e8899845ad3d59bd9653f200f220920489ca2b5937696c3183604051610b849190612185565b60405180910390a35050565b60078060000154905081565b610bad610ba7610ee4565b83610fa5565b610bec576040517f08c379a0000000000000000000000000000000000000000000000000000000008152600401610be3906123a2565b60405180910390fd5b610bf884848484611545565b50505050565b6060610c0982610e78565b610c48576040517f08c379a0000000000000000000000000000000000000000000000000000000008152600401610c3f90612302565b60405180910390fd5b6000600660008481526020019081526020016000208054610c6890612618565b80601f0160208091040260200160405190810160405280929190818152602001828054610c9490612618565b8015610ce15780601f10610cb657610100808354040283529160200191610ce1565b820191906000526020600020905b815481529060010190602001808311610cc457829003601f168201915b505050505090506000610cf26115a1565b9050600081511415610d08578192505050610d4b565b600082511115610d3d578082604051602001610d259291906120fa565b60405160208183030381529060405292505050610d4b565b610d46846115b8565b925050505b919050565b6000600560008473ffffffffffffffffffffffffffffffffffffffff1673ffffffffffffffffffffffffffffffffffffffff16815260200190815260200160002060008373ffffffffffffffffffffffffffffffffffffffff1673ffffffffffffffffffffffffffffffffffffffff16815260200190815260200160002060009054906101000a900460ff16905092915050565b6000600860009054906101000a900473ffffffffffffffffffffffffffffffffffffffff16905090565b60007f01ffc9a7000000000000000000000000000000000000000000000000000000007bffffffffffffffffffffffffffffffffffffffffffffffffffffffff1916827bffffffffffffffffffffffffffffffffffffffffffffffffffffffff1916149050919050565b60008073ffffffffffffffffffffffffffffffffffffffff166002600084815260200190815260200160002060009054906101000a900473ffffffffffffffffffffffffffffffffffffffff1673ffffffffffffffffffffffffffffffffffffffff1614159050919050565b600033905090565b816004600083815260200190815260200160002060006101000a81548173ffffffffffffffffffffffffffffffffffffffff021916908373ffffffffffffffffffffffffffffffffffffffff160217905550808273ffffffffffffffffffffffffffffffffffffffff16610f5f83610813565b73ffffffffffffffffffffffffffffffffffffffff167f8c5be1e5ebec7d5bd14f71427d1e84f3dd0314c0f7b2291e5b200ac8c7c3b92560405160405180910390a45050565b6000610fb082610e78565b610fef576040517f08c379a0000000000000000000000000000000000000000000000000000000008152600401610fe690612242565b60405180910390fd5b6000610ffa83610813565b90508073ffffffffffffffffffffffffffffffffffffffff168473ffffffffffffffffffffffffffffffffffffffff16148061106957508373ffffffffffffffffffffffffffffffffffffffff16611051846104f4565b73ffffffffffffffffffffffffffffffffffffffff16145b8061107a57506110798185610d50565b5b91505092915050565b8273ffffffffffffffffffffffffffffffffffffffff166110a382610813565b73ffffffffffffffffffffffffffffffffffffffff16146110f9576040517f08c379a00000000000000000000000000000000000000000000000000000000081526004016110f090612342565b60405180910390fd5b600073ffffffffffffffffffffffffffffffffffffffff168273ffffffffffffffffffffffffffffffffffffffff161415611169576040517f08c379a000000000000000000000000000000000000000000000000000000000815260040161116090612202565b60405180910390fd5b61117483838361165f565b61117f600082610eec565b6001600360008573ffffffffffffffffffffffffffffffffffffffff1673ffffffffffffffffffffffffffffffffffffffff16815260200190815260200160002060008282546111cf919061252e565b925050819055506001600360008473ffffffffffffffffffffffffffffffffffffffff1673ffffffffffffffffffffffffffffffffffffffff168152602001908152602001600020600082825461122691906124a7565b92505081905550816002600083815260200190815260200160002060006101000a81548173ffffffffffffffffffffffffffffffffffffffff021916908373ffffffffffffffffffffffffffffffffffffffff160217905550808273ffffffffffffffffffffffffffffffffffffffff168473ffffffffffffffffffffffffffffffffffffffff167fddf252ad1be2c89b69c2b068fc378daa952ba7f163c4a11628f55a4df523b3ef60405160405180910390a4505050565b6001816000016000828254019250508190555050565b600081600001549050919050565b600073ffffffffffffffffffffffffffffffffffffffff168273ffffffffffffffffffffffffffffffffffffffff161415611373576040517f08c379a000000000000000000000000000000000000000000000000000000000815260040161136a906122e2565b60405180910390fd5b61137c81610e78565b156113bc576040517f08c379a00000000000000000000000000000000000000000000000000000000081526004016113b3906121e2565b60405180910390fd5b6113c86000838361165f565b6001600360008473ffffffffffffffffffffffffffffffffffffffff1673ffffffffffffffffffffffffffffffffffffffff168152602001908152602001600020600082825461141891906124a7565b92505081905550816002600083815260200190815260200160002060006101000a81548173ffffffffffffffffffffffffffffffffffffffff021916908373ffffffffffffffffffffffffffffffffffffffff160217905550808273ffffffffffffffffffffffffffffffffffffffff16600073ffffffffffffffffffffffffffffffffffffffff167fddf252ad1be2c89b69c2b068fc378daa952ba7f163c4a11628f55a4df523b3ef60405160405180910390a45050565b6114da82610e78565b611519576040517f08c379a0000000000000000000000000000000000000000000000000000000008152600401611510906122c2565b60405180910390fd5b806006600084815260200190815260200160002090805190602001906115409291906119bb565b505050565b611550848484611083565b61155c84848484611664565b61159b576040517f08c379a0000000000000000000000000000000000000000000000000000000008152600401611592906121c2565b60405180910390fd5b50505050565b606060405180602001604052806000815250905090565b60606115c382610e78565b611602576040517f08c379a00000000000000000000000000000000000000000000000000000000081526004016115f990612362565b60405180910390fd5b600061160c6115a1565b9050600081511161162c5760405180602001604052806000815250611657565b80611636846117fb565b6040516020016116479291906120fa565b6040516020818303038152906040525b915050919050565b505050565b60006116858473ffffffffffffffffffffffffffffffffffffffff166119a8565b156117ee578373ffffffffffffffffffffffffffffffffffffffff1663150b7a026116ae610ee4565b8786866040518563ffffffff1660e01b81526004016116d09493929190612139565b602060405180830381600087803b1580156116ea57600080fd5b505af192505050801561171b57506040513d601f19601f820116820180604052508101906117189190611d67565b60015b61179e573d806000811461174b576040519150601f19603f3d011682016040523d82523d6000602084013e611750565b606091505b50600081511415611796576040517f08c379a000000000000000000000000000000000000000000000000000000000815260040161178d906121c2565b60405180910390fd5b805181602001fd5b63150b7a0260e01b7bffffffffffffffffffffffffffffffffffffffffffffffffffffffff1916817bffffffffffffffffffffffffffffffffffffffffffffffffffffffff1916149150506117f3565b600190505b949350505050565b60606000821415611843576040518060400160405280600181526020017f300000000000000000000000000000000000000000000000000000000000000081525090506119a3565b600082905060005b6000821461187557808061185e9061267b565b915050600a8261186e91906124fd565b915061184b565b60008167ffffffffffffffff8111156118b7577f4e487b7100000000000000000000000000000000000000000000000000000000600052604160045260246000fd5b6040519080825280601f01601f1916602001820160405280156118e95781602001600182028036833780820191505090505b5090505b6000851461199c57600182611902919061252e565b9150600a8561191191906126c4565b603061191d91906124a7565b60f81b818381518110611959577f4e487b7100000000000000000000000000000000000000000000000000000000600052603260045260246000fd5b60200101907effffffffffffffffffffffffffffffffffffffffffffffffffffffffffffff1916908160001a905350600a8561199591906124fd565b94506118ed565b8093505050505b919050565b600080823b905060008111915050919050565b8280546119c790612618565b90600052602060002090601f0160209004810192826119e95760008555611a30565b82601f10611a0257805160ff1916838001178555611a30565b82800160010185558215611a30579182015b82811115611a2f578251825591602001919060010190611a14565b5b509050611a3d9190611a41565b5090565b5b80821115611a5a576000816000905550600101611a42565b5090565b6000611a71611a6c84612402565b6123dd565b905082815260208101848484011115611a8957600080fd5b611a948482856125d6565b509392505050565b6000611aaf611aaa84612433565b6123dd565b905082815260208101848484011115611ac757600080fd5b611ad28482856125d6565b509392505050565b600081359050611ae981612c40565b92915050565b600081359050611afe81612c57565b92915050565b600081359050611b1381612c6e565b92915050565b600081519050611b2881612c6e565b92915050565b600082601f830112611b3f57600080fd5b8135611b4f848260208601611a5e565b91505092915050565b600082601f830112611b6957600080fd5b8135611b79848260208601611a9c565b91505092915050565b600081359050611b9181612c85565b92915050565b600060208284031215611ba957600080fd5b6000611bb784828501611ada565b91505092915050565b60008060408385031215611bd357600080fd5b6000611be185828601611ada565b9250506020611bf285828601611ada565b9150509250929050565b600080600060608486031215611c1157600080fd5b6000611c1f86828701611ada565b9350506020611c3086828701611ada565b9250506040611c4186828701611b82565b9150509250925092565b60008060008060808587031215611c6157600080fd5b6000611c6f87828801611ada565b9450506020611c8087828801611ada565b9350506040611c9187828801611b82565b925050606085013567ffffffffffffffff811115611cae57600080fd5b611cba87828801611b2e565b91505092959194509250565b60008060408385031215611cd957600080fd5b6000611ce785828601611ada565b9250506020611cf885828601611aef565b9150509250929050565b60008060408385031215611d1557600080fd5b6000611d2385828601611ada565b9250506020611d3485828601611b82565b9150509250929050565b600060208284031215611d5057600080fd5b6000611d5e84828501611b04565b91505092915050565b600060208284031215611d7957600080fd5b6000611d8784828501611b19565b91505092915050565b600060208284031215611da257600080fd5b600082013567ffffffffffffffff811115611dbc57600080fd5b611dc884828501611b58565b91505092915050565b600060208284031215611de357600080fd5b6000611df184828501611b82565b91505092915050565b611e0381612562565b82525050565b611e1281612574565b82525050565b6000611e2382612464565b611e2d818561247a565b9350611e3d8185602086016125e5565b611e46816127b1565b840191505092915050565b6000611e5c8261246f565b611e66818561248b565b9350611e768185602086016125e5565b611e7f816127b1565b840191505092915050565b6000611e958261246f565b611e9f818561249c565b9350611eaf8185602086016125e5565b80840191505092915050565b6000611ec860328361248b565b9150611ed3826127c2565b604082019050919050565b6000611eeb601c8361248b565b9150611ef682612811565b602082019050919050565b6000611f0e60248361248b565b9150611f198261283a565b604082019050919050565b6000611f3160198361248b565b9150611f3c82612889565b602082019050919050565b6000611f54602c8361248b565b9150611f5f826128b2565b604082019050919050565b6000611f7760388361248b565b9150611f8282612901565b604082019050919050565b6000611f9a602a8361248b565b9150611fa582612950565b604082019050919050565b6000611fbd60298361248b565b9150611fc88261299f565b604082019050919050565b6000611fe0602e8361248b565b9150611feb826129ee565b604082019050919050565b600061200360208361248b565b915061200e82612a3d565b602082019050919050565b600061202660318361248b565b915061203182612a66565b604082019050919050565b6000612049602c8361248b565b915061205482612ab5565b604082019050919050565b600061206c60298361248b565b915061207782612b04565b604082019050919050565b600061208f602f8361248b565b915061209a82612b53565b604082019050919050565b60006120b260218361248b565b91506120bd82612ba2565b604082019050919050565b60006120d560318361248b565b91506120e082612bf1565b604082019050919050565b6120f4816125cc565b82525050565b60006121068285611e8a565b91506121128284611e8a565b91508190509392505050565b60006020820190506121336000830184611dfa565b92915050565b600060808201905061214e6000830187611dfa565b61215b6020830186611dfa565b61216860408301856120eb565b818103606083015261217a8184611e18565b905095945050505050565b600060208201905061219a6000830184611e09565b92915050565b600060208201905081810360008301526121ba8184611e51565b905092915050565b600060208201905081810360008301526121db81611ebb565b9050919050565b600060208201905081810360008301526121fb81611ede565b9050919050565b6000602082019050818103600083015261221b81611f01565b9050919050565b6000602082019050818103600083015261223b81611f24565b9050919050565b6000602082019050818103600083015261225b81611f47565b9050919050565b6000602082019050818103600083015261227b81611f6a565b9050919050565b6000602082019050818103600083015261229b81611f8d565b9050919050565b600060208201905081810360008301526122bb81611fb0565b9050919050565b600060208201905081810360008301526122db81611fd3565b9050919050565b600060208201905081810360008301526122fb81611ff6565b9050919050565b6000602082019050818103600083015261231b81612019565b9050919050565b6000602082019050818103600083015261233b8161203c565b9050919050565b6000602082019050818103600083015261235b8161205f565b9050919050565b6000602082019050818103600083015261237b81612082565b9050919050565b6000602082019050818103600083015261239b816120a5565b9050919050565b600060208201905081810360008301526123bb816120c8565b9050919050565b60006020820190506123d760008301846120eb565b92915050565b60006123e76123f8565b90506123f3828261264a565b919050565b6000604051905090565b600067ffffffffffffffff82111561241d5761241c612782565b5b612426826127b1565b9050602081019050919050565b600067ffffffffffffffff82111561244e5761244d612782565b5b612457826127b1565b9050602081019050919050565b600081519050919050565b600081519050919050565b600082825260208201905092915050565b600082825260208201905092915050565b600081905092915050565b60006124b2826125cc565b91506124bd836125cc565b9250827fffffffffffffffffffffffffffffffffffffffffffffffffffffffffffffffff038211156124f2576124f16126f5565b5b828201905092915050565b6000612508826125cc565b9150612513836125cc565b92508261252357612522612724565b5b828204905092915050565b6000612539826125cc565b9150612544836125cc565b925082821015612557576125566126f5565b5b828203905092915050565b600061256d826125ac565b9050919050565b60008115159050919050565b60007fffffffff0000000000000000000000000000000000000000000000000000000082169050919050565b600073ffffffffffffffffffffffffffffffffffffffff82169050919050565b6000819050919050565b82818337600083830152505050565b60005b838110156126035780820151818401526020810190506125e8565b83811115612612576000848401525b50505050565b6000600282049050600182168061263057607f821691505b6020821081141561264457612643612753565b5b50919050565b612653826127b1565b810181811067ffffffffffffffff8211171561267257612671612782565b5b80604052505050565b6000612686826125cc565b91507fffffffffffffffffffffffffffffffffffffffffffffffffffffffffffffffff8214156126b9576126b86126f5565b5b600182019050919050565b60006126cf826125cc565b91506126da836125cc565b9250826126ea576126e9612724565b5b828206905092915050565b7f4e487b7100000000000000000000000000000000000000000000000000000000600052601160045260246000fd5b7f4e487b7100000000000000000000000000000000000000000000000000000000600052601260045260246000fd5b7f4e487b7100000000000000000000000000000000000000000000000000000000600052602260045260246000fd5b7f4e487b7100000000000000000000000000000000000000000000000000000000600052604160045260246000fd5b6000601f19601f8301169050919050565b7f4552433732313a207472616e7366657220746f206e6f6e20455243373231526560008201527f63656976657220696d706c656d656e7465720000000000000000000000000000602082015250565b7f4552433732313a20746f6b656e20616c7265616479206d696e74656400000000600082015250565b7f4552433732313a207472616e7366657220746f20746865207a65726f2061646460008201527f7265737300000000000000000000000000000000000000000000000000000000602082015250565b7f4552433732313a20617070726f766520746f2063616c6c657200000000000000600082015250565b7f4552433732313a206f70657261746f7220717565727920666f72206e6f6e657860008201527f697374656e7420746f6b656e0000000000000000000000000000000000000000602082015250565b7f4552433732313a20617070726f76652063616c6c6572206973206e6f74206f7760008201527f6e6572206e6f7220617070726f76656420666f7220616c6c0000000000000000602082015250565b7f4552433732313a2062616c616e636520717565727920666f7220746865207a6560008201527f726f206164647265737300000000000000000000000000000000000000000000602082015250565b7f4552433732313a206f776e657220717565727920666f72206e6f6e657869737460008201527f656e7420746f6b656e0000000000000000000000000000000000000000000000602082015250565b7f45524337323155524953746f726167653a2055524920736574206f66206e6f6e60008201527f6578697374656e7420746f6b656e000000000000000000000000000000000000602082015250565b7f4552433732313a206d696e7420746f20746865207a65726f2061646472657373600082015250565b7f45524337323155524953746f726167653a2055524920717565727920666f722060008201527f6e6f6e6578697374656e7420746f6b656e000000000000000000000000000000602082015250565b7f4552433732313a20617070726f76656420717565727920666f72206e6f6e657860008201527f697374656e7420746f6b656e0000000000000000000000000000000000000000602082015250565b7f4552433732313a207472616e73666572206f6620746f6b656e2074686174206960008201527f73206e6f74206f776e0000000000000000000000000000000000000000000000602082015250565b7f4552433732314d657461646174613a2055524920717565727920666f72206e6f60008201527f6e6578697374656e7420746f6b656e0000000000000000000000000000000000602082015250565b7f4552433732313a20617070726f76616c20746f2063757272656e74206f776e6560008201527f7200000000000000000000000000000000000000000000000000000000000000602082015250565b7f4552433732313a207472616e736665722063616c6c6572206973206e6f74206f60008201527f776e6572206e6f7220617070726f766564000000000000000000000000000000602082015250565b612c4981612562565b8114612c5457600080fd5b50565b612c6081612574565b8114612c6b57600080fd5b50565b612c7781612580565b8114612c8257600080fd5b50565b612c8e816125cc565b8114612c9957600080fd5b5056fea26469706673582212201299d5cfafda40c4c9ea880f8e46d8cfd325f2cb2febe20939f3107a64a83b4064736f6c63430008040033",
  "linkReferences": {},
  "deployedLinkReferences": {}
}